{
  "contractName": "CarMarketPlace",
  "abi": [
    {
      "constant": true,
      "inputs": [],
      "name": "carCount",
      "outputs": [
        {
          "name": "",
          "type": "uint256"
        }
      ],
      "payable": false,
      "stateMutability": "view",
      "type": "function"
    },
    {
      "constant": true,
      "inputs": [
        {
          "name": "",
          "type": "uint256"
        }
      ],
      "name": "carsMap",
      "outputs": [
        {
          "name": "id",
          "type": "uint256"
        },
        {
          "name": "vin",
          "type": "string"
        },
        {
          "name": "price",
          "type": "uint256"
        },
        {
          "name": "carInfoIpfsHash",
          "type": "string"
        },
        {
          "name": "imageIpfsHash",
          "type": "string"
        },
        {
          "name": "owner",
          "type": "address"
        },
        {
          "name": "purchased",
          "type": "bool"
        }
      ],
      "payable": false,
      "stateMutability": "view",
      "type": "function"
    },
    {
      "constant": true,
      "inputs": [
        {
          "name": "",
          "type": "string"
        }
      ],
      "name": "uniqueVinMap",
      "outputs": [
        {
          "name": "",
          "type": "bool"
        }
      ],
      "payable": false,
      "stateMutability": "view",
      "type": "function"
    },
    {
      "constant": true,
      "inputs": [],
      "name": "contractOwner",
      "outputs": [
        {
          "name": "",
          "type": "address"
        }
      ],
      "payable": false,
      "stateMutability": "view",
      "type": "function"
    },
    {
      "inputs": [],
      "payable": false,
      "stateMutability": "nonpayable",
      "type": "constructor"
    },
    {
      "anonymous": false,
      "inputs": [
        {
          "indexed": false,
          "name": "carId",
          "type": "uint256"
        },
        {
          "indexed": false,
          "name": "vin",
          "type": "string"
        },
        {
          "indexed": false,
          "name": "price",
          "type": "uint256"
        },
        {
          "indexed": false,
          "name": "carInfoIpfsHash",
          "type": "string"
        },
        {
          "indexed": false,
          "name": "imageIpfsHash",
          "type": "string"
        },
        {
          "indexed": false,
          "name": "owner",
          "type": "address"
        },
        {
          "indexed": false,
          "name": "purchased",
          "type": "bool"
        }
      ],
      "name": "CarOnSale",
      "type": "event"
    },
    {
      "anonymous": false,
      "inputs": [
        {
          "indexed": false,
          "name": "carId",
          "type": "uint256"
        },
        {
          "indexed": false,
          "name": "vin",
          "type": "string"
        },
        {
          "indexed": false,
          "name": "price",
          "type": "uint256"
        },
        {
          "indexed": false,
          "name": "carInfoIpfsHash",
          "type": "string"
        },
        {
          "indexed": false,
          "name": "imageIpfsHash",
          "type": "string"
        },
        {
          "indexed": false,
          "name": "owner",
          "type": "address"
        },
        {
          "indexed": false,
          "name": "purchased",
          "type": "bool"
        }
      ],
      "name": "CarPurchasedFromSeller",
      "type": "event"
    },
    {
      "anonymous": false,
      "inputs": [
        {
          "indexed": false,
          "name": "sellerBalanceBefore",
          "type": "uint256"
        },
        {
          "indexed": false,
          "name": "amountToSendToSeller",
          "type": "uint256"
        },
        {
          "indexed": false,
          "name": "sellerBalanceAfter",
          "type": "uint256"
        },
        {
          "indexed": false,
          "name": "marketPlaceSmartContractBalance",
          "type": "uint256"
        }
      ],
      "name": "sellerAndSmartContractBalanceAfterPurchase",
      "type": "event"
    },
    {
      "constant": false,
      "inputs": [
        {
          "name": "_vin",
          "type": "string"
        },
        {
          "name": "_price",
          "type": "uint256"
        },
        {
          "name": "_carInfoIpfsHash",
          "type": "string"
        },
        {
          "name": "_imageIpfsHash",
          "type": "string"
        }
      ],
      "name": "createCarForSale",
      "outputs": [],
      "payable": false,
      "stateMutability": "nonpayable",
      "type": "function"
    },
    {
      "constant": false,
      "inputs": [
        {
          "name": "_id",
          "type": "uint256"
        }
      ],
      "name": "buyCarFromSeller",
      "outputs": [],
      "payable": true,
      "stateMutability": "payable",
      "type": "function"
    }
  ],
  "bytecode": "0x6080604052600060015534801561001557600080fd5b50336000806101000a81548173ffffffffffffffffffffffffffffffffffffffff021916908373ffffffffffffffffffffffffffffffffffffffff160217905550611af0806100656000396000f3fe6080604052600436106100555760003560e01c8063297a1f561461005a57806352e4779c146100855780635574c36e14610285578063605feba7146102b35780639437ddc61461048b578063ce606ee01461056b575b600080fd5b34801561006657600080fd5b5061006f6105c2565b6040518082815260200191505060405180910390f35b34801561009157600080fd5b50610283600480360360808110156100a857600080fd5b81019080803590602001906401000000008111156100c557600080fd5b8201836020820111156100d757600080fd5b803590602001918460018302840111640100000000831117156100f957600080fd5b91908080601f016020809104026020016040519081016040528093929190818152602001838380828437600081840152601f19601f820116905080830192505050505050509192919290803590602001909291908035906020019064010000000081111561016657600080fd5b82018360208201111561017857600080fd5b8035906020019184600183028401116401000000008311171561019a57600080fd5b91908080601f016020809104026020016040519081016040528093929190818152602001838380828437600081840152601f19601f820116905080830192505050505050509192919290803590602001906401000000008111156101fd57600080fd5b82018360208201111561020f57600080fd5b8035906020019184600183028401116401000000008311171561023157600080fd5b91908080601f016020809104026020016040519081016040528093929190818152602001838380828437600081840152601f19601f8201169050808301925050505050505091929192905050506105c8565b005b6102b16004803603602081101561029b57600080fd5b8101908080359060200190929190505050610c3b565b005b3480156102bf57600080fd5b506102ec600480360360208110156102d657600080fd5b8101908080359060200190929190505050611521565b604051808881526020018060200187815260200180602001806020018673ffffffffffffffffffffffffffffffffffffffff1673ffffffffffffffffffffffffffffffffffffffff1681526020018515151515815260200184810384528a818151815260200191508051906020019080838360005b8381101561037c578082015181840152602081019050610361565b50505050905090810190601f1680156103a95780820380516001836020036101000a031916815260200191505b50848103835288818151815260200191508051906020019080838360005b838110156103e25780820151818401526020810190506103c7565b50505050905090810190601f16801561040f5780820380516001836020036101000a031916815260200191505b50848103825287818151815260200191508051906020019080838360005b8381101561044857808201518184015260208101905061042d565b50505050905090810190601f1680156104755780820380516001836020036101000a031916815260200191505b509a505050505050505050505060405180910390f35b34801561049757600080fd5b50610551600480360360208110156104ae57600080fd5b81019080803590602001906401000000008111156104cb57600080fd5b8201836020820111156104dd57600080fd5b803590602001918460018302840111640100000000831117156104ff57600080fd5b91908080601f016020809104026020016040519081016040528093929190818152602001838380828437600081840152601f19601f820116905080830192505050505050509192919290505050611758565b604051808215151515815260200191505060405180910390f35b34801561057757600080fd5b5061058061178e565b604051808273ffffffffffffffffffffffffffffffffffffffff1673ffffffffffffffffffffffffffffffffffffffff16815260200191505060405180910390f35b60015481565b838383836000845111610643576040517f08c379a00000000000000000000000000000000000000000000000000000000081526004018080602001828103825260118152602001807f56494e20697320696e76616c696420212100000000000000000000000000000081525060200191505060405180910390fd5b620186a083116106bb576040517f08c379a00000000000000000000000000000000000000000000000000000000081526004018080602001828103825260138152602001807f507269636520697320696e76616c69642021210000000000000000000000000081525060200191505060405180910390fd5b6000825111610732576040517f08c379a000000000000000000000000000000000000000000000000000000000815260040180806020018281038252601f8152602001807f436172496e666f2049504653206861736820697320696e76616c69642021210081525060200191505060405180910390fd5b60008151116107a9576040517f08c379a000000000000000000000000000000000000000000000000000000000815260040180806020018281038252601d8152602001807f496d6167652049504653206861736820697320696e76616c696420212100000081525060200191505060405180910390fd5b87600115156003826040518082805190602001908083835b602083106107e457805182526020820191506020810190506020830392506107c1565b6001836020036101000a038019825116818451168082178552505050505050905001915050908152602001604051809103902060009054906101000a900460ff161515141561089b576040517f08c379a00000000000000000000000000000000000000000000000000000000081526004018080602001828103825260198152602001807f56494e2f43617220616c7265616479206578697374732021210000000000000081525060200191505060405180910390fd5b6001600081548092919060010191905055506040518060e0016040528060015481526020018a81526020018981526020018881526020018781526020013373ffffffffffffffffffffffffffffffffffffffff168152602001600015158152506002600060015481526020019081526020016000206000820151816000015560208201518160010190805190602001906109369291906118ce565b5060408201518160020155606082015181600301908051906020019061095d9291906118ce565b50608082015181600401908051906020019061097a9291906118ce565b5060a08201518160050160006101000a81548173ffffffffffffffffffffffffffffffffffffffff021916908373ffffffffffffffffffffffffffffffffffffffff16021790555060c08201518160050160146101000a81548160ff021916908315150217905550905050600160038a6040518082805190602001908083835b60208310610a1d57805182526020820191506020810190506020830392506109fa565b6001836020036101000a038019825116818451168082178552505050505050905001915050908152602001604051809103902060006101000a81548160ff0219169083151502179055507f84772a0514e7c59faee6d03a884ba8b50782f46594972723782452f16e1c78416001548a8a8a8a336000604051808881526020018060200187815260200180602001806020018673ffffffffffffffffffffffffffffffffffffffff1673ffffffffffffffffffffffffffffffffffffffff1681526020018515151515815260200184810384528a818151815260200191508051906020019080838360005b83811015610b22578082015181840152602081019050610b07565b50505050905090810190601f168015610b4f5780820380516001836020036101000a031916815260200191505b50848103835288818151815260200191508051906020019080838360005b83811015610b88578082015181840152602081019050610b6d565b50505050905090810190601f168015610bb55780820380516001836020036101000a031916815260200191505b50848103825287818151815260200191508051906020019080838360005b83811015610bee578082015181840152602081019050610bd3565b50505050905090810190601f168015610c1b5780820380516001836020036101000a031916815260200191505b509a505050505050505050505060405180910390a1505050505050505050565b80600081118015610c4e57506001548111155b610cc0576040517f08c379a00000000000000000000000000000000000000000000000000000000081526004018080602001828103825260118152602001807f4e6f7420612076616c696420494420212100000000000000000000000000000081525060200191505060405180910390fd5b610cc861194e565b600260008481526020019081526020016000206040518060e001604052908160008201548152602001600182018054600181600116156101000203166002900480601f016020809104026020016040519081016040528092919081815260200182805460018160011615610100020316600290048015610d895780601f10610d5e57610100808354040283529160200191610d89565b820191906000526020600020905b815481529060010190602001808311610d6c57829003601f168201915b5050505050815260200160028201548152602001600382018054600181600116156101000203166002900480601f016020809104026020016040519081016040528092919081815260200182805460018160011615610100020316600290048015610e355780601f10610e0a57610100808354040283529160200191610e35565b820191906000526020600020905b815481529060010190602001808311610e1857829003601f168201915b50505050508152602001600482018054600181600116156101000203166002900480601f016020809104026020016040519081016040528092919081815260200182805460018160011615610100020316600290048015610ed75780601f10610eac57610100808354040283529160200191610ed7565b820191906000526020600020905b815481529060010190602001808311610eba57829003601f168201915b505050505081526020016005820160009054906101000a900473ffffffffffffffffffffffffffffffffffffffff1673ffffffffffffffffffffffffffffffffffffffff1673ffffffffffffffffffffffffffffffffffffffff1681526020016005820160149054906101000a900460ff161515151581525050905060008160a0015190508073ffffffffffffffffffffffffffffffffffffffff163373ffffffffffffffffffffffffffffffffffffffff161415610fe1576040517f08c379a0000000000000000000000000000000000000000000000000000000008152600401808060200182810382526026815260200180611a7b6026913960400191505060405180910390fd5b81604001513373ffffffffffffffffffffffffffffffffffffffff16311015611055576040517f08c379a00000000000000000000000000000000000000000000000000000000081526004018080602001828103825260398152602001806119ff6039913960400191505060405180910390fd5b81604001513410156110b2576040517f08c379a0000000000000000000000000000000000000000000000000000000008152600401808060200182810382526024815260200180611aa16024913960400191505060405180910390fd5b8160c001511561110d576040517f08c379a00000000000000000000000000000000000000000000000000000000081526004018080602001828103825260368152602001806119c96036913960400191505060405180910390fd5b60018260c0019015159081151581525050338260a0019073ffffffffffffffffffffffffffffffffffffffff16908173ffffffffffffffffffffffffffffffffffffffff168152505081600260008681526020019081526020016000206000820151816000015560208201518160010190805190602001906111909291906118ce565b506040820151816002015560608201518160030190805190602001906111b79291906118ce565b5060808201518160040190805190602001906111d49291906118ce565b5060a08201518160050160006101000a81548173ffffffffffffffffffffffffffffffffffffffff021916908373ffffffffffffffffffffffffffffffffffffffff16021790555060c08201518160050160146101000a81548160ff02191690831515021790555090505060003490506000611253605f6064846117b3565b905060008373ffffffffffffffffffffffffffffffffffffffff163190508373ffffffffffffffffffffffffffffffffffffffff166108fc839081150290604051600060405180830381858888f193505050501580156112b7573d6000803e3d6000fd5b5060008473ffffffffffffffffffffffffffffffffffffffff1631905060003073ffffffffffffffffffffffffffffffffffffffff163190507fb7848e9d2ac4e6559da0847d97f3d6cdcf96cf8bcd00c2a12fca9a6eca3afd2189886020015189604001518a606001518b60800151336001604051808881526020018060200187815260200180602001806020018673ffffffffffffffffffffffffffffffffffffffff1673ffffffffffffffffffffffffffffffffffffffff1681526020018515151515815260200184810384528a818151815260200191508051906020019080838360005b838110156113b957808201518184015260208101905061139e565b50505050905090810190601f1680156113e65780820380516001836020036101000a031916815260200191505b50848103835288818151815260200191508051906020019080838360005b8381101561141f578082015181840152602081019050611404565b50505050905090810190601f16801561144c5780820380516001836020036101000a031916815260200191505b50848103825287818151815260200191508051906020019080838360005b8381101561148557808201518184015260208101905061146a565b50505050905090810190601f1680156114b25780820380516001836020036101000a031916815260200191505b509a505050505050505050505060405180910390a17f555cba08f3af92e0f77bce1e71fa2da421f3f743bfa74059f5f5fabdb928b126838584846040518085815260200184815260200183815260200182815260200194505050505060405180910390a1505050505050505050565b6002602052806000526040600020600091509050806000015490806001018054600181600116156101000203166002900480601f0160208091040260200160405190810160405280929190818152602001828054600181600116156101000203166002900480156115d35780601f106115a8576101008083540402835291602001916115d3565b820191906000526020600020905b8154815290600101906020018083116115b657829003601f168201915b505050505090806002015490806003018054600181600116156101000203166002900480601f0160208091040260200160405190810160405280929190818152602001828054600181600116156101000203166002900480156116775780601f1061164c57610100808354040283529160200191611677565b820191906000526020600020905b81548152906001019060200180831161165a57829003601f168201915b505050505090806004018054600181600116156101000203166002900480601f0160208091040260200160405190810160405280929190818152602001828054600181600116156101000203166002900480156117155780601f106116ea57610100808354040283529160200191611715565b820191906000526020600020905b8154815290600101906020018083116116f857829003601f168201915b5050505050908060050160009054906101000a900473ffffffffffffffffffffffffffffffffffffffff16908060050160149054906101000a900460ff16905087565b6003818051602081018201805184825260208301602085012081835280955050505050506000915054906101000a900460ff1681565b6000809054906101000a900473ffffffffffffffffffffffffffffffffffffffff1681565b6000806117c085846117d6565b90506117cc818561185c565b9150509392505050565b6000808314156117e95760009050611856565b60008284029050828482816117fa57fe5b0414611851576040517f08c379a0000000000000000000000000000000000000000000000000000000008152600401808060200182810382526021815260200180611a5a6021913960400191505060405180910390fd5b809150505b92915050565b60008082116118b6576040517f08c379a0000000000000000000000000000000000000000000000000000000008152600401808060200182810382526022815260200180611a386022913960400191505060405180910390fd5b60008284816118c157fe5b0490508091505092915050565b828054600181600116156101000203166002900490600052602060002090601f016020900481019282601f1061190f57805160ff191683800117855561193d565b8280016001018555821561193d579182015b8281111561193c578251825591602001919060010190611921565b5b50905061194a91906119a3565b5090565b6040518060e001604052806000815260200160608152602001600081526020016060815260200160608152602001600073ffffffffffffffffffffffffffffffffffffffff1681526020016000151581525090565b6119c591905b808211156119c15760008160009055506001016119a9565b5090565b9056fe4361722068617320616c7265616479206265656e20707572636861736564206279206120646966666572656e74206275796572202121427579657220646f6573206e6f74206861766520656e6f7567682062616c616e636520746f20707572636861736520746865206361722021215f736166654d617468446976696465203a2044656e6f6d696e61746f722069732030536166654d6174683a206d756c7469706c69636174696f6e206f766572666c6f77496e76616c69642062757965722021212041726520796f75207468652073656c6c6572203f20496e76616c69642070726963652073656e7420746f206275792074686520636172202121a165627a7a72305820a11065cf2fe15c768ace1f5d5cc743d9b140423a9fd9bba5ab3decf367e0c9020029",
  "source": "pragma solidity >=0.4.22 <0.6.0;\r\n\r\nimport \"./Utils.sol\";\r\n\r\ncontract CarMarketPlace {\r\n    using Utils for *;\r\n    \r\n    address payable public contractOwner;\r\n    \r\n    constructor() public {\r\n        contractOwner = msg.sender;\r\n    }\r\n    \r\n    struct Car {\r\n        uint id;\r\n        string vin;\r\n        uint price;\r\n        string carInfoIpfsHash;\r\n        string imageIpfsHash;\r\n        address payable owner;\r\n        bool purchased;\r\n    }\r\n    \r\n    //count of cars\r\n    uint public carCount = 0;\r\n    // Mapping of ID to car\r\n    mapping(uint => Car) public carsMap;\r\n    // Mapping of vin to purchased or not\r\n    mapping(string => bool) public uniqueVinMap;\r\n    \r\n    //Event to be triggered\r\n    event CarOnSale(uint carId, string vin, uint price, string carInfoIpfsHash, string imageIpfsHash, address owner, bool purchased);\r\n    \r\n    //Validate input data for create car sale\r\n\tmodifier validateSellCarRequest(string memory vin, uint price, string memory carInfoIpfsHash, string memory imageIpfsHash) {\r\n        require(bytes(vin).length > 0, \"VIN is invalid !!\");\r\n\t\trequire(price > 100000, \"Price is invalid !!\");\r\n\t\trequire(bytes(carInfoIpfsHash).length > 0, \"CarInfo IPFS hash is invalid !!\");\r\n\t\trequire(bytes(imageIpfsHash).length > 0, \"Image IPFS hash is invalid !!\");\r\n        _;\r\n    }\r\n    \r\n    //Unique vin/car validation\r\n    modifier validateUniqueVin(string memory vin) {\r\n        require(uniqueVinMap[vin] != true, \"VIN/Car already exists !!\");\r\n        _;\r\n    }\r\n    \r\n    // This method will create or list a car for sale so that potential buyer can purchase it. \r\n    // Input: \r\n    //      _vin - VIN of the car\r\n    //      _price - price of the car\r\n    //      _carInfoIpfsHash - hash of JSON (vin, make, model, year, type, sellerName ) stored in IPFS\r\n    //      _imageIpfsHash - hash of car image stored in IPFS\r\n    function createCarForSale(string memory _vin, uint _price, string memory _carInfoIpfsHash, string memory _imageIpfsHash) public validateSellCarRequest(_vin, _price, _carInfoIpfsHash, _imageIpfsHash) validateUniqueVin(_vin) {\r\n\t    //Increment car count\r\n\t    carCount++;\r\n        // Seller Creates car and puts on sale\r\n        carsMap[carCount] = Car(carCount, _vin, _price, _carInfoIpfsHash, _imageIpfsHash, msg.sender, false);\r\n        //Map to avoid creating duplicate cars/vins for sale\r\n        uniqueVinMap[_vin] = true;\r\n\t\t//Trigger event when car is created for sale \r\n        emit CarOnSale(carCount, _vin, _price, _carInfoIpfsHash, _imageIpfsHash, msg.sender, false);\r\n    }\r\n    \r\n    event CarPurchasedFromSeller(uint carId, string vin, uint price, string carInfoIpfsHash, string imageIpfsHash, address owner, bool purchased);\r\n    \r\n    event sellerAndSmartContractBalanceAfterPurchase(uint sellerBalanceBefore, uint amountToSendToSeller, uint sellerBalanceAfter, uint marketPlaceSmartContractBalance);\r\n    \r\n    modifier validId(uint id) {\r\n        require(id > 0 && id <= carCount, \"Not a valid ID !!\");\r\n        _;\r\n    }\r\n    \r\n    // This method will allow the buyer to purchase the car from seller. \r\n    // 95% of the price goes to the seller and remaining 5% goes to this contract\r\n    // Input:\r\n    //      _id - ID of the car being bought\r\n    function buyCarFromSeller(uint _id) public payable validId(_id) {\r\n        // Retrieve the car \r\n        Car memory car = carsMap[_id];\r\n        // Get the owner/seller\r\n        address payable seller = car.owner;\r\n        \r\n        //Validate buyer is not the same as seller\r\n        require(msg.sender != seller, \"Invalid buyer !! Are you the seller ? \");\r\n        \r\n        //Validate buyer has enough balance to buy the car\r\n        require(msg.sender.balance >= car.price, \"Buyer does not have enough balance to purchase the car !!\");\r\n        \r\n        //Validate price sent in the transaction is equal to or greater than car price set by seller\r\n        require(msg.value >= car.price, \"Invalid price sent to buy the car !!\");\r\n        \r\n        //validate car is not purchased already\r\n        require(!car.purchased, \"Car has already been purchased by a different buyer !!\");\r\n        \r\n        //Update the car as purchased\r\n        car.purchased = true;\r\n        //Transfer ownership to Buyer\r\n        car.owner = msg.sender;\r\n        \r\n        //re-assign the updated car\r\n        carsMap[_id] = car;\r\n        \r\n        //Pay 95% of the total price (in wei) to seller\r\n        //Pay 5% of the total price (in wei) to CarMarketPlace smart contract\r\n        uint totalCarPrice = msg.value;\r\n        //uint amountToSendToSmartContract = Utils._getPercentageOfTotalAmount(uint(5), uint(100), uint(totalCarPrice));\r\n        //uint amountToSendToSeller = Utils._safeMathSubtract(totalCarPrice, amountToSendToSmartContract);\r\n        uint amountToSendToSeller = Utils._getPercentageOfTotalAmount(uint(95), uint(100), uint(totalCarPrice));\r\n\r\n        uint sellerBalanceBefore = seller.balance;\r\n        //Transfer 95% of the price to seller\r\n        seller.transfer(amountToSendToSeller);\r\n        uint sellerBalanceAfter = seller.balance;\r\n        \r\n        //5% of the price is added to this contract's balance \r\n        //We are not explicitly adding the balance since contract's function is payable and it holds all the money sent to it initially. \r\n        uint marketPlaceSmartContractBalance = address(this).balance;\r\n        \r\n        //Trigger event when car is purchased by buyer\r\n        emit CarPurchasedFromSeller(_id, car.vin, car.price, car.carInfoIpfsHash, car.imageIpfsHash, msg.sender, true);\r\n        \r\n        //Trigger event for seller and smartContract balance after car purchase\r\n        emit sellerAndSmartContractBalanceAfterPurchase(sellerBalanceBefore, amountToSendToSeller, sellerBalanceAfter, marketPlaceSmartContractBalance);\r\n    }\r\n    \r\n}",
  "sourcePath": "C:/Sharath/Kingsland/Module_5/Project_2/Ethereum-Dapp/contracts/CarMarketPlace.sol",
  "compiler": {
    "name": "solc",
    "version": "0.5.8+commit.23d335f2.Emscripten.clang"
  },
  "schemaVersion": "3.0.16",
  "updatedAt": "2019-11-24T14:31:30.939Z",
  "devdoc": {
    "methods": {}
  },
  "userdoc": {
    "methods": {}
  }
}