{
  "contractName": "SafeMathMock",
  "abi": [
    {
      "constant": true,
      "inputs": [
        {
          "name": "a",
          "type": "uint256"
        },
        {
          "name": "b",
          "type": "uint256"
        }
      ],
      "name": "_safeMathDivide",
      "outputs": [
        {
          "name": "",
          "type": "uint256"
        }
      ],
      "payable": false,
      "stateMutability": "pure",
      "type": "function"
    },
    {
      "constant": true,
      "inputs": [
        {
          "name": "a",
          "type": "uint256"
        },
        {
          "name": "b",
          "type": "uint256"
        }
      ],
      "name": "_safeMathMultiply",
      "outputs": [
        {
          "name": "",
          "type": "uint256"
        }
      ],
      "payable": false,
      "stateMutability": "pure",
      "type": "function"
    }
  ],
  "bytecode": "0x608060405234801561001057600080fd5b50610262806100206000396000f3fe608060405234801561001057600080fd5b50600436106100365760003560e01c80632ee5a6a91461003b578063f6cfcbc414610087575b600080fd5b6100716004803603604081101561005157600080fd5b8101908080359060200190929190803590602001909291905050506100d3565b6040518082815260200191505060405180910390f35b6100bd6004803603604081101561009d57600080fd5b8101908080359060200190929190803590602001909291905050506100e7565b6040518082815260200191505060405180910390f35b60006100df83836100fb565b905092915050565b60006100f38383610181565b905092915050565b60008083141561010e576000905061017b565b600082840290508284828161011f57fe5b0414610176576040517f08c379a00000000000000000000000000000000000000000000000000000000081526004018080602001828103825260218152602001806102166021913960400191505060405180910390fd5b809150505b92915050565b60008082116101db576040517f08c379a00000000000000000000000000000000000000000000000000000000081526004018080602001828103825260228152602001806101f46022913960400191505060405180910390fd5b60008284816101e657fe5b049050809150509291505056fe5f736166654d617468446976696465203a2044656e6f6d696e61746f722069732030536166654d6174683a206d756c7469706c69636174696f6e206f766572666c6f77a165627a7a72305820efd1289b1ce09962ac803d7c4f212068487d02b98723c220ba24acf0efe018420029",
  "source": "pragma solidity >=0.4.22 <0.6.0;\r\n\r\nimport \"./Utils.sol\";\r\n\r\ncontract SafeMathMock {\r\n    /*function _safeMathAdd(uint256 a, uint256 b) public pure returns (uint256) {\r\n        return Utils._safeMathAdd(a, b);\r\n    }\r\n\r\n    function _safeMathSubtract(uint256 a, uint256 b) public pure returns (uint256) {\r\n        return Utils._safeMathSubtract(a, b);\r\n    }*/\r\n\r\n    function _safeMathDivide(uint256 a, uint256 b) public pure returns (uint256) {\r\n        return Utils._safeMathDivide(a, b);\r\n    }\r\n\r\n    function _safeMathMultiply(uint256 a, uint256 b) public pure returns (uint256) {\r\n        return Utils._safeMathMultiply(a, b);\r\n    }\r\n    \r\n}",
  "sourcePath": "C:/Sharath/Kingsland/Module_5/Project_2/Ethereum-Dapp/contracts/SafeMathMock.sol",
  "compiler": {
    "name": "solc",
    "version": "0.5.8+commit.23d335f2.Emscripten.clang"
  },
  "schemaVersion": "3.0.16",
  "updatedAt": "2019-11-24T14:31:30.954Z",
  "devdoc": {
    "methods": {}
  },
  "userdoc": {
    "methods": {}
  }
}